{
  "address": "0xCa8F5e151465A99504f9F176d9DaF3DCfC702945",
  "abi": [
    {
      "inputs": [],
      "stateMutability": "nonpayable",
      "type": "constructor"
    },
    {
      "inputs": [],
      "name": "AboveMaxMintPerWallet",
      "type": "error"
    },
    {
      "inputs": [],
      "name": "ApprovalCallerNotOwnerNorApproved",
      "type": "error"
    },
    {
      "inputs": [],
      "name": "ApprovalQueryForNonexistentToken",
      "type": "error"
    },
    {
      "inputs": [],
      "name": "ApproveToCaller",
      "type": "error"
    },
    {
      "inputs": [],
      "name": "BalanceQueryForZeroAddress",
      "type": "error"
    },
    {
      "inputs": [],
      "name": "MaxSupplyReached",
      "type": "error"
    },
    {
      "inputs": [],
      "name": "MintERC2309QuantityExceedsLimit",
      "type": "error"
    },
    {
      "inputs": [],
      "name": "MintToZeroAddress",
      "type": "error"
    },
    {
      "inputs": [],
      "name": "MintZeroQuantity",
      "type": "error"
    },
    {
      "inputs": [],
      "name": "OwnerQueryForNonexistentToken",
      "type": "error"
    },
    {
      "inputs": [],
      "name": "OwnershipNotInitializedForExtraData",
      "type": "error"
    },
    {
      "inputs": [],
      "name": "TransferCallerNotOwnerNorApproved",
      "type": "error"
    },
    {
      "inputs": [],
      "name": "TransferFromIncorrectOwner",
      "type": "error"
    },
    {
      "inputs": [],
      "name": "TransferToNonERC721ReceiverImplementer",
      "type": "error"
    },
    {
      "inputs": [],
      "name": "TransferToZeroAddress",
      "type": "error"
    },
    {
      "inputs": [],
      "name": "URIQueryForNonexistentToken",
      "type": "error"
    },
    {
      "anonymous": false,
      "inputs": [
        {
          "indexed": true,
          "internalType": "address",
          "name": "owner",
          "type": "address"
        },
        {
          "indexed": true,
          "internalType": "address",
          "name": "approved",
          "type": "address"
        },
        {
          "indexed": true,
          "internalType": "uint256",
          "name": "tokenId",
          "type": "uint256"
        }
      ],
      "name": "Approval",
      "type": "event"
    },
    {
      "anonymous": false,
      "inputs": [
        {
          "indexed": true,
          "internalType": "address",
          "name": "owner",
          "type": "address"
        },
        {
          "indexed": true,
          "internalType": "address",
          "name": "operator",
          "type": "address"
        },
        {
          "indexed": false,
          "internalType": "bool",
          "name": "approved",
          "type": "bool"
        }
      ],
      "name": "ApprovalForAll",
      "type": "event"
    },
    {
      "anonymous": false,
      "inputs": [
        {
          "indexed": true,
          "internalType": "uint256",
          "name": "fromTokenId",
          "type": "uint256"
        },
        {
          "indexed": false,
          "internalType": "uint256",
          "name": "toTokenId",
          "type": "uint256"
        },
        {
          "indexed": true,
          "internalType": "address",
          "name": "from",
          "type": "address"
        },
        {
          "indexed": true,
          "internalType": "address",
          "name": "to",
          "type": "address"
        }
      ],
      "name": "ConsecutiveTransfer",
      "type": "event"
    },
    {
      "anonymous": false,
      "inputs": [
        {
          "indexed": true,
          "internalType": "address",
          "name": "from",
          "type": "address"
        },
        {
          "indexed": true,
          "internalType": "address",
          "name": "to",
          "type": "address"
        },
        {
          "indexed": true,
          "internalType": "uint256",
          "name": "tokenId",
          "type": "uint256"
        }
      ],
      "name": "Transfer",
      "type": "event"
    },
    {
      "inputs": [],
      "name": "MAX_PER_WALLET",
      "outputs": [
        {
          "internalType": "uint256",
          "name": "",
          "type": "uint256"
        }
      ],
      "stateMutability": "view",
      "type": "function"
    },
    {
      "inputs": [],
      "name": "MAX_SUPPLY",
      "outputs": [
        {
          "internalType": "uint256",
          "name": "",
          "type": "uint256"
        }
      ],
      "stateMutability": "view",
      "type": "function"
    },
    {
      "inputs": [
        {
          "internalType": "address",
          "name": "",
          "type": "address"
        }
      ],
      "name": "_amountMinted",
      "outputs": [
        {
          "internalType": "uint256",
          "name": "",
          "type": "uint256"
        }
      ],
      "stateMutability": "view",
      "type": "function"
    },
    {
      "inputs": [
        {
          "internalType": "uint256",
          "name": "",
          "type": "uint256"
        }
      ],
      "name": "_info",
      "outputs": [
        {
          "internalType": "string",
          "name": "name",
          "type": "string"
        },
        {
          "internalType": "string",
          "name": "lang",
          "type": "string"
        },
        {
          "internalType": "string",
          "name": "lev",
          "type": "string"
        }
      ],
      "stateMutability": "view",
      "type": "function"
    },
    {
      "inputs": [
        {
          "internalType": "address",
          "name": "to",
          "type": "address"
        },
        {
          "internalType": "uint256",
          "name": "tokenId",
          "type": "uint256"
        }
      ],
      "name": "approve",
      "outputs": [],
      "stateMutability": "nonpayable",
      "type": "function"
    },
    {
      "inputs": [
        {
          "internalType": "address",
          "name": "owner",
          "type": "address"
        }
      ],
      "name": "balanceOf",
      "outputs": [
        {
          "internalType": "uint256",
          "name": "",
          "type": "uint256"
        }
      ],
      "stateMutability": "view",
      "type": "function"
    },
    {
      "inputs": [
        {
          "internalType": "uint256",
          "name": "tokenId",
          "type": "uint256"
        }
      ],
      "name": "getApproved",
      "outputs": [
        {
          "internalType": "address",
          "name": "",
          "type": "address"
        }
      ],
      "stateMutability": "view",
      "type": "function"
    },
    {
      "inputs": [
        {
          "internalType": "uint256",
          "name": "_tokenId",
          "type": "uint256"
        }
      ],
      "name": "getImage",
      "outputs": [
        {
          "internalType": "string",
          "name": "svg",
          "type": "string"
        }
      ],
      "stateMutability": "view",
      "type": "function"
    },
    {
      "inputs": [
        {
          "internalType": "address",
          "name": "owner",
          "type": "address"
        },
        {
          "internalType": "address",
          "name": "operator",
          "type": "address"
        }
      ],
      "name": "isApprovedForAll",
      "outputs": [
        {
          "internalType": "bool",
          "name": "",
          "type": "bool"
        }
      ],
      "stateMutability": "view",
      "type": "function"
    },
    {
      "inputs": [
        {
          "internalType": "uint256",
          "name": "",
          "type": "uint256"
        }
      ],
      "name": "languages",
      "outputs": [
        {
          "internalType": "string",
          "name": "",
          "type": "string"
        }
      ],
      "stateMutability": "view",
      "type": "function"
    },
    {
      "inputs": [
        {
          "internalType": "uint256",
          "name": "",
          "type": "uint256"
        }
      ],
      "name": "level",
      "outputs": [
        {
          "internalType": "string",
          "name": "",
          "type": "string"
        }
      ],
      "stateMutability": "view",
      "type": "function"
    },
    {
      "inputs": [
        {
          "internalType": "uint256",
          "name": "_amount",
          "type": "uint256"
        }
      ],
      "name": "mint",
      "outputs": [],
      "stateMutability": "nonpayable",
      "type": "function"
    },
    {
      "inputs": [],
      "name": "name",
      "outputs": [
        {
          "internalType": "string",
          "name": "",
          "type": "string"
        }
      ],
      "stateMutability": "view",
      "type": "function"
    },
    {
      "inputs": [
        {
          "internalType": "uint256",
          "name": "tokenId",
          "type": "uint256"
        }
      ],
      "name": "ownerOf",
      "outputs": [
        {
          "internalType": "address",
          "name": "",
          "type": "address"
        }
      ],
      "stateMutability": "view",
      "type": "function"
    },
    {
      "inputs": [
        {
          "internalType": "address",
          "name": "from",
          "type": "address"
        },
        {
          "internalType": "address",
          "name": "to",
          "type": "address"
        },
        {
          "internalType": "uint256",
          "name": "tokenId",
          "type": "uint256"
        }
      ],
      "name": "safeTransferFrom",
      "outputs": [],
      "stateMutability": "nonpayable",
      "type": "function"
    },
    {
      "inputs": [
        {
          "internalType": "address",
          "name": "from",
          "type": "address"
        },
        {
          "internalType": "address",
          "name": "to",
          "type": "address"
        },
        {
          "internalType": "uint256",
          "name": "tokenId",
          "type": "uint256"
        },
        {
          "internalType": "bytes",
          "name": "_data",
          "type": "bytes"
        }
      ],
      "name": "safeTransferFrom",
      "outputs": [],
      "stateMutability": "nonpayable",
      "type": "function"
    },
    {
      "inputs": [
        {
          "internalType": "address",
          "name": "operator",
          "type": "address"
        },
        {
          "internalType": "bool",
          "name": "approved",
          "type": "bool"
        }
      ],
      "name": "setApprovalForAll",
      "outputs": [],
      "stateMutability": "nonpayable",
      "type": "function"
    },
    {
      "inputs": [
        {
          "internalType": "bytes4",
          "name": "interfaceId",
          "type": "bytes4"
        }
      ],
      "name": "supportsInterface",
      "outputs": [
        {
          "internalType": "bool",
          "name": "",
          "type": "bool"
        }
      ],
      "stateMutability": "view",
      "type": "function"
    },
    {
      "inputs": [],
      "name": "symbol",
      "outputs": [
        {
          "internalType": "string",
          "name": "",
          "type": "string"
        }
      ],
      "stateMutability": "view",
      "type": "function"
    },
    {
      "inputs": [
        {
          "internalType": "uint256",
          "name": "tokenId",
          "type": "uint256"
        }
      ],
      "name": "tokenURI",
      "outputs": [
        {
          "internalType": "string",
          "name": "",
          "type": "string"
        }
      ],
      "stateMutability": "view",
      "type": "function"
    },
    {
      "inputs": [],
      "name": "totalSupply",
      "outputs": [
        {
          "internalType": "uint256",
          "name": "",
          "type": "uint256"
        }
      ],
      "stateMutability": "view",
      "type": "function"
    },
    {
      "inputs": [
        {
          "internalType": "address",
          "name": "from",
          "type": "address"
        },
        {
          "internalType": "address",
          "name": "to",
          "type": "address"
        },
        {
          "internalType": "uint256",
          "name": "tokenId",
          "type": "uint256"
        }
      ],
      "name": "transferFrom",
      "outputs": [],
      "stateMutability": "nonpayable",
      "type": "function"
    }
  ],
  "transactionHash": "0x6568c571685c811f16f393aba089b6219752226e8e27f8fa64e18ee422a340c3",
  "args": [],
  "numDeployments": 3,
  "solcInputHash": "0e325bcf5b2f4aba4ac75647e327a38c",
  "bytecode": "0x60806040526040518060e001604052806040518060400160405280600881526020017f536f6c696469747900000000000000000000000000000000000000000000000081525081526020016040518060400160405280600a81526020017f4a6176615363726970740000000000000000000000000000000000000000000081525081526020016040518060400160405280600681526020017f507974686f6e000000000000000000000000000000000000000000000000000081525081526020016040518060400160405280600481526020017f527573740000000000000000000000000000000000000000000000000000000081525081526020016040518060400160405280600381526020017f432b2b000000000000000000000000000000000000000000000000000000000081525081526020016040518060400160405280600281526020017f476f00000000000000000000000000000000000000000000000000000000000081525081526020016040518060400160405280600481526020017f4a617661000000000000000000000000000000000000000000000000000000008152508152506009906007620001bc92919062000a40565b5060405180604001604052806040518060400160405280600681526020017f4a756e696f72000000000000000000000000000000000000000000000000000081525081526020016040518060400160405280600681526020017f53656e696f72000000000000000000000000000000000000000000000000000081525081525060109060026200024e92919062000a9a565b503480156200025c57600080fd5b506040518060400160405280600681526020017f4d79204e667400000000000000000000000000000000000000000000000000008152506040518060400160405280600381526020017f4e465400000000000000000000000000000000000000000000000000000000008152508160029080519060200190620002e192919062000af4565b508060039080519060200190620002fa92919062000af4565b506200030b6200032b60201b60201c565b60008190555050506200032560016200033460201b60201c565b62000f9b565b60006001905090565b600062000346620004ca60201b60201c565b9050600282600860003373ffffffffffffffffffffffffffffffffffffffff1673ffffffffffffffffffffffffffffffffffffffff1681526020019081526020016000205462000397919062000c4b565b1115620003d0576040517f22c77c3d00000000000000000000000000000000000000000000000000000000815260040160405180910390fd5b611ae8620003e3620004d360201b60201c565b83620003f0919062000c4b565b111562000429576040517fd05cb60900000000000000000000000000000000000000000000000000000000815260040160405180910390fd5b81600860003373ffffffffffffffffffffffffffffffffffffffff1673ffffffffffffffffffffffffffffffffffffffff16815260200190815260200160002060008282546200047a919062000c4b565b9250508190555060005b82811015620004b3576200049e82620004f260201b60201c565b50505081600101915080600101905062000484565b620004c533846200073a60201b60201c565b505050565b60008054905090565b6000620004e56200032b60201b60201c565b6001546000540303905090565b606080606062000508846200092360201b60201c565b6040516020016200051a919062000d7b565b60405160208183030381529060405292506009620005408560076200097760201b60201c565b6007811062000554576200055362000da1565b5b018054620005629062000dff565b80601f0160208091040260200160405190810160405280929190818152602001828054620005909062000dff565b8015620005e15780601f10620005b557610100808354040283529160200191620005e1565b820191906000526020600020905b815481529060010190602001808311620005c357829003601f168201915b505050505091506010620005fd8560026200097760201b60201c565b6002811062000611576200061062000da1565b5b0180546200061f9062000dff565b80601f01602080910402602001604051908101604052809291908181526020018280546200064d9062000dff565b80156200069e5780601f1062000672576101008083540402835291602001916200069e565b820191906000526020600020905b8154815290600101906020018083116200068057829003601f168201915b50505050509050604051806060016040528084815260200183815260200182815250601260008681526020019081526020016000206000820151816000019080519060200190620006f192919062000af4565b5060208201518160010190805190602001906200071092919062000af4565b5060408201518160020190805190602001906200072f92919062000af4565b509050509193909250565b60008054905060008214156200077c576040517fb562e8dd00000000000000000000000000000000000000000000000000000000815260040160405180910390fd5b620007916000848385620009c060201b60201c565b600160406001901b178202600560008573ffffffffffffffffffffffffffffffffffffffff1673ffffffffffffffffffffffffffffffffffffffff168152602001908152602001600020600082825401925050819055506200082083620008026000866000620009c660201b60201c565b6200081385620009f660201b60201c565b1762000a0660201b60201c565b6004600083815260200190815260200160002081905550600080838301905073ffffffffffffffffffffffffffffffffffffffff85169150828260007fddf252ad1be2c89b69c2b068fc378daa952ba7f163c4a11628f55a4df523b3ef600080a4600183015b818114620008c357808360007fddf252ad1be2c89b69c2b068fc378daa952ba7f163c4a11628f55a4df523b3ef600080a460018101905062000886565b50600082141562000900576040517f2e07630000000000000000000000000000000000000000000000000000000000815260040160405180910390fd5b8060008190555050506200091e600084838562000a3160201b60201c565b505050565b606060806040510190508060405280825b6001156200096357600183039250600a81066030018353600a81049050806200095d5762000963565b62000934565b508181036020830392508083525050919050565b6000813344428660405160200162000993949392919062000ede565b6040516020818303038152906040528051906020012060001c620009b8919062000f63565b905092915050565b50505050565b60008060e883901c905060e8620009e586868462000a3760201b60201c565b62ffffff16901b9150509392505050565b60006001821460e11b9050919050565b600073ffffffffffffffffffffffffffffffffffffffff83169250814260a01b178317905092915050565b50505050565b60009392505050565b826007810192821562000a87579160200282015b8281111562000a8657825182908051906020019062000a7592919062000af4565b509160200191906001019062000a54565b5b50905062000a96919062000b85565b5090565b826002810192821562000ae1579160200282015b8281111562000ae057825182908051906020019062000acf92919062000af4565b509160200191906001019062000aae565b5b50905062000af0919062000b85565b5090565b82805462000b029062000dff565b90600052602060002090601f01602090048101928262000b26576000855562000b72565b82601f1062000b4157805160ff191683800117855562000b72565b8280016001018555821562000b72579182015b8281111562000b7157825182559160200191906001019062000b54565b5b50905062000b81919062000bad565b5090565b5b8082111562000ba9576000818162000b9f919062000bcc565b5060010162000b86565b5090565b5b8082111562000bc857600081600090555060010162000bae565b5090565b50805462000bda9062000dff565b6000825580601f1062000bee575062000c0f565b601f01602090049060005260206000209081019062000c0e919062000bad565b5b50565b6000819050919050565b7f4e487b7100000000000000000000000000000000000000000000000000000000600052601160045260246000fd5b600062000c588262000c12565b915062000c658362000c12565b9250827fffffffffffffffffffffffffffffffffffffffffffffffffffffffffffffffff0382111562000c9d5762000c9c62000c1c565b5b828201905092915050565b600081905092915050565b7f2300000000000000000000000000000000000000000000000000000000000000600082015250565b600062000ceb60018362000ca8565b915062000cf88262000cb3565b600182019050919050565b600081519050919050565b60005b8381101562000d2e57808201518184015260208101905062000d11565b8381111562000d3e576000848401525b50505050565b600062000d518262000d03565b62000d5d818562000ca8565b935062000d6f81856020860162000d0e565b80840191505092915050565b600062000d888262000cdc565b915062000d96828462000d44565b915081905092915050565b7f4e487b7100000000000000000000000000000000000000000000000000000000600052603260045260246000fd5b7f4e487b7100000000000000000000000000000000000000000000000000000000600052602260045260246000fd5b6000600282049050600182168062000e1857607f821691505b6020821081141562000e2f5762000e2e62000dd0565b5b50919050565b600073ffffffffffffffffffffffffffffffffffffffff82169050919050565b600062000e628262000e35565b9050919050565b60008160601b9050919050565b600062000e838262000e69565b9050919050565b600062000e978262000e76565b9050919050565b62000eb362000ead8262000e55565b62000e8a565b82525050565b6000819050919050565b62000ed862000ed28262000c12565b62000eb9565b82525050565b600062000eec828762000e9e565b60148201915062000efe828662000ec3565b60208201915062000f10828562000ec3565b60208201915062000f22828462000ec3565b60208201915081905095945050505050565b7f4e487b7100000000000000000000000000000000000000000000000000000000600052601260045260246000fd5b600062000f708262000c12565b915062000f7d8362000c12565b92508262000f905762000f8f62000f34565b5b828206905092915050565b6133b78062000fab6000396000f3fe608060405234801561001057600080fd5b50600436106101425760003560e01c80635ffb03c9116100b8578063a22cb4651161007c578063a22cb4651461039d578063b88d4fde146103b9578063be974335146103d5578063c87b56dd14610407578063d53150fc14610437578063e985e9c51461046757610142565b80635ffb03c9146102d35780636352211e1461030357806370a082311461033357806395d89b4114610363578063a0712d681461038157610142565b80630f2cdd6c1161010a5780630f2cdd6c1461021157806318160ddd1461022f57806323b872dd1461024d5780632607aafa1461026957806332cb6b0c1461029957806342842e0e146102b757610142565b806301ffc9a71461014757806305c58df21461017757806306fdde03146101a7578063081812fc146101c5578063095ea7b3146101f5575b600080fd5b610161600480360381019061015c919061223e565b610497565b60405161016e9190612286565b60405180910390f35b610191600480360381019061018c91906122d7565b610529565b60405161019e919061239d565b60405180910390f35b6101af6105cc565b6040516101bc919061239d565b60405180910390f35b6101df60048036038101906101da91906122d7565b61065e565b6040516101ec9190612400565b60405180910390f35b61020f600480360381019061020a9190612447565b6106dd565b005b610219610821565b6040516102269190612496565b60405180910390f35b610237610826565b6040516102449190612496565b60405180910390f35b610267600480360381019061026291906124b1565b61083d565b005b610283600480360381019061027e91906122d7565b610b62565b604051610290919061239d565b60405180910390f35b6102a1610d7c565b6040516102ae9190612496565b60405180910390f35b6102d160048036038101906102cc91906124b1565b610d82565b005b6102ed60048036038101906102e891906122d7565b610da2565b6040516102fa919061239d565b60405180910390f35b61031d600480360381019061031891906122d7565b610e45565b60405161032a9190612400565b60405180910390f35b61034d60048036038101906103489190612504565b610e57565b60405161035a9190612496565b60405180910390f35b61036b610f10565b604051610378919061239d565b60405180910390f35b61039b600480360381019061039691906122d7565b610fa2565b005b6103b760048036038101906103b2919061255d565b61110e565b005b6103d360048036038101906103ce91906126d2565b611286565b005b6103ef60048036038101906103ea91906122d7565b6112f9565b6040516103fe93929190612755565b60405180910390f35b610421600480360381019061041c91906122d7565b6114bb565b60405161042e919061239d565b60405180910390f35b610451600480360381019061044c9190612504565b611731565b60405161045e9190612496565b60405180910390f35b610481600480360381019061047c91906127a1565b611749565b60405161048e9190612286565b60405180910390f35b60006301ffc9a760e01b827bffffffffffffffffffffffffffffffffffffffffffffffffffffffff191614806104f257506380ac58cd60e01b827bffffffffffffffffffffffffffffffffffffffffffffffffffffffff1916145b806105225750635b5e139f60e01b827bffffffffffffffffffffffffffffffffffffffffffffffffffffffff1916145b9050919050565b6010816002811061053957600080fd5b01600091509050805461054b90612810565b80601f016020809104026020016040519081016040528092919081815260200182805461057790612810565b80156105c45780601f10610599576101008083540402835291602001916105c4565b820191906000526020600020905b8154815290600101906020018083116105a757829003601f168201915b505050505081565b6060600280546105db90612810565b80601f016020809104026020016040519081016040528092919081815260200182805461060790612810565b80156106545780601f1061062957610100808354040283529160200191610654565b820191906000526020600020905b81548152906001019060200180831161063757829003601f168201915b5050505050905090565b6000610669826117dd565b61069f576040517fcf4700e400000000000000000000000000000000000000000000000000000000815260040160405180910390fd5b6006600083815260200190815260200160002060000160009054906101000a900473ffffffffffffffffffffffffffffffffffffffff169050919050565b60006106e882610e45565b90508073ffffffffffffffffffffffffffffffffffffffff1661070961183c565b73ffffffffffffffffffffffffffffffffffffffff161461076c576107358161073061183c565b611749565b61076b576040517fcfb3b94200000000000000000000000000000000000000000000000000000000815260040160405180910390fd5b5b826006600084815260200190815260200160002060000160006101000a81548173ffffffffffffffffffffffffffffffffffffffff021916908373ffffffffffffffffffffffffffffffffffffffff160217905550818373ffffffffffffffffffffffffffffffffffffffff168273ffffffffffffffffffffffffffffffffffffffff167f8c5be1e5ebec7d5bd14f71427d1e84f3dd0314c0f7b2291e5b200ac8c7c3b92560405160405180910390a4505050565b600281565b6000610830611844565b6001546000540303905090565b60006108488261184d565b90508373ffffffffffffffffffffffffffffffffffffffff168173ffffffffffffffffffffffffffffffffffffffff16146108af576040517fa114810000000000000000000000000000000000000000000000000000000000815260040160405180910390fd5b6000806108bb8461191b565b915091506108d181876108cc61183c565b611942565b61091d576108e6866108e161183c565b611749565b61091c576040517f59c896be00000000000000000000000000000000000000000000000000000000815260040160405180910390fd5b5b600073ffffffffffffffffffffffffffffffffffffffff168573ffffffffffffffffffffffffffffffffffffffff161415610984576040517fea553b3400000000000000000000000000000000000000000000000000000000815260040160405180910390fd5b6109918686866001611986565b801561099c57600082555b600560008773ffffffffffffffffffffffffffffffffffffffff1673ffffffffffffffffffffffffffffffffffffffff168152602001908152602001600020600081546001900391905081905550600560008673ffffffffffffffffffffffffffffffffffffffff1673ffffffffffffffffffffffffffffffffffffffff1681526020019081526020016000206000815460010191905081905550610a6a85610a4688888761198c565b7c0200000000000000000000000000000000000000000000000000000000176119b4565b600460008681526020019081526020016000208190555060007c020000000000000000000000000000000000000000000000000000000084161415610af2576000600185019050600060046000838152602001908152602001600020541415610af0576000548114610aef578360046000838152602001908152602001600020819055505b5b505b838573ffffffffffffffffffffffffffffffffffffffff168773ffffffffffffffffffffffffffffffffffffffff167fddf252ad1be2c89b69c2b068fc378daa952ba7f163c4a11628f55a4df523b3ef60405160405180910390a4610b5a86868660016119df565b505050505050565b6060600060126000848152602001908152602001600020604051806060016040529081600082018054610b9490612810565b80601f0160208091040260200160405190810160405280929190818152602001828054610bc090612810565b8015610c0d5780601f10610be257610100808354040283529160200191610c0d565b820191906000526020600020905b815481529060010190602001808311610bf057829003601f168201915b50505050508152602001600182018054610c2690612810565b80601f0160208091040260200160405190810160405280929190818152602001828054610c5290612810565b8015610c9f5780601f10610c7457610100808354040283529160200191610c9f565b820191906000526020600020905b815481529060010190602001808311610c8257829003601f168201915b50505050508152602001600282018054610cb890612810565b80601f0160208091040260200160405190810160405280929190818152602001828054610ce490612810565b8015610d315780601f10610d0657610100808354040283529160200191610d31565b820191906000526020600020905b815481529060010190602001808311610d1457829003601f168201915b5050505050815250509050610d74816000015182602001518360400151604051602001610d6093929190612c34565b6040516020818303038152906040526119e5565b915050919050565b611ae881565b610d9d83838360405180602001604052806000815250611286565b505050565b60098160078110610db257600080fd5b016000915090508054610dc490612810565b80601f0160208091040260200160405190810160405280929190818152602001828054610df090612810565b8015610e3d5780601f10610e1257610100808354040283529160200191610e3d565b820191906000526020600020905b815481529060010190602001808311610e2057829003601f168201915b505050505081565b6000610e508261184d565b9050919050565b60008073ffffffffffffffffffffffffffffffffffffffff168273ffffffffffffffffffffffffffffffffffffffff161415610ebf576040517f8f4eb60400000000000000000000000000000000000000000000000000000000815260040160405180910390fd5b67ffffffffffffffff600560008473ffffffffffffffffffffffffffffffffffffffff1673ffffffffffffffffffffffffffffffffffffffff16815260200190815260200160002054169050919050565b606060038054610f1f90612810565b80601f0160208091040260200160405190810160405280929190818152602001828054610f4b90612810565b8015610f985780601f10610f6d57610100808354040283529160200191610f98565b820191906000526020600020905b815481529060010190602001808311610f7b57829003601f168201915b5050505050905090565b6000610fac611b49565b9050600282600860003373ffffffffffffffffffffffffffffffffffffffff1673ffffffffffffffffffffffffffffffffffffffff16815260200190815260200160002054610ffb9190612ce1565b1115611033576040517f22c77c3d00000000000000000000000000000000000000000000000000000000815260040160405180910390fd5b611ae861103e610826565b836110499190612ce1565b1115611081576040517fd05cb60900000000000000000000000000000000000000000000000000000000815260040160405180910390fd5b81600860003373ffffffffffffffffffffffffffffffffffffffff1673ffffffffffffffffffffffffffffffffffffffff16815260200190815260200160002060008282546110d09190612ce1565b9250508190555060005b828110156110ff576110eb82611b52565b5050508160010191508060010190506110da565b6111093384611d64565b505050565b61111661183c565b73ffffffffffffffffffffffffffffffffffffffff168273ffffffffffffffffffffffffffffffffffffffff16141561117b576040517fb06307db00000000000000000000000000000000000000000000000000000000815260040160405180910390fd5b806007600061118861183c565b73ffffffffffffffffffffffffffffffffffffffff1673ffffffffffffffffffffffffffffffffffffffff16815260200190815260200160002060008473ffffffffffffffffffffffffffffffffffffffff1673ffffffffffffffffffffffffffffffffffffffff16815260200190815260200160002060006101000a81548160ff0219169083151502179055508173ffffffffffffffffffffffffffffffffffffffff1661123561183c565b73ffffffffffffffffffffffffffffffffffffffff167f17307eab39ab6107e8899845ad3d59bd9653f200f220920489ca2b5937696c318360405161127a9190612286565b60405180910390a35050565b61129184848461083d565b60008373ffffffffffffffffffffffffffffffffffffffff163b146112f3576112bc84848484611f21565b6112f2576040517fd1a57ed600000000000000000000000000000000000000000000000000000000815260040160405180910390fd5b5b50505050565b601260205280600052604060002060009150905080600001805461131c90612810565b80601f016020809104026020016040519081016040528092919081815260200182805461134890612810565b80156113955780601f1061136a57610100808354040283529160200191611395565b820191906000526020600020905b81548152906001019060200180831161137857829003601f168201915b5050505050908060010180546113aa90612810565b80601f01602080910402602001604051908101604052809291908181526020018280546113d690612810565b80156114235780601f106113f857610100808354040283529160200191611423565b820191906000526020600020905b81548152906001019060200180831161140657829003601f168201915b50505050509080600201805461143890612810565b80601f016020809104026020016040519081016040528092919081815260200182805461146490612810565b80156114b15780601f10611486576101008083540402835291602001916114b1565b820191906000526020600020905b81548152906001019060200180831161149457829003601f168201915b5050505050905083565b60606114c6826117dd565b6114fc576040517fa14c4b5000000000000000000000000000000000000000000000000000000000815260040160405180910390fd5b60006012600084815260200190815260200160002060405180606001604052908160008201805461152c90612810565b80601f016020809104026020016040519081016040528092919081815260200182805461155890612810565b80156115a55780601f1061157a576101008083540402835291602001916115a5565b820191906000526020600020905b81548152906001019060200180831161158857829003601f168201915b505050505081526020016001820180546115be90612810565b80601f01602080910402602001604051908101604052809291908181526020018280546115ea90612810565b80156116375780601f1061160c57610100808354040283529160200191611637565b820191906000526020600020905b81548152906001019060200180831161161a57829003601f168201915b5050505050815260200160028201805461165090612810565b80601f016020809104026020016040519081016040528092919081815260200182805461167c90612810565b80156116c95780601f1061169e576101008083540402835291602001916116c9565b820191906000526020600020905b8154815290600101906020018083116116ac57829003601f168201915b505050505081525050905061170a81600001516116e585610b62565b6040516020016116f6929190612f4b565b6040516020818303038152906040526119e5565b60405160200161171a9190612ffd565b604051602081830303815290604052915050919050565b60086020528060005260406000206000915090505481565b6000600760008473ffffffffffffffffffffffffffffffffffffffff1673ffffffffffffffffffffffffffffffffffffffff16815260200190815260200160002060008373ffffffffffffffffffffffffffffffffffffffff1673ffffffffffffffffffffffffffffffffffffffff16815260200190815260200160002060009054906101000a900460ff16905092915050565b6000816117e8611844565b111580156117f7575060005482105b8015611835575060007c0100000000000000000000000000000000000000000000000000000000600460008581526020019081526020016000205416145b9050919050565b600033905090565b60006001905090565b6000808290508061185c611844565b116118e4576000548110156118e35760006004600083815260200190815260200160002054905060007c0100000000000000000000000000000000000000000000000000000000821614156118e1575b60008114156118d75760046000836001900393508381526020019081526020016000205490506118ac565b8092505050611916565b505b5b6040517fdf2d9b4200000000000000000000000000000000000000000000000000000000815260040160405180910390fd5b919050565b60008060006006600085815260200190815260200160002090508092508254915050915091565b600073ffffffffffffffffffffffffffffffffffffffff8316925073ffffffffffffffffffffffffffffffffffffffff821691508382148383141790509392505050565b50505050565b60008060e883901c905060e86119a3868684612081565b62ffffff16901b9150509392505050565b600073ffffffffffffffffffffffffffffffffffffffff83169250814260a01b178317905092915050565b50505050565b6060600082511415611a0857604051806020016040528060008152509050611b44565b60006040518060600160405280604081526020016133426040913990506000600360028551611a379190612ce1565b611a41919061304e565b6004611a4d919061307f565b67ffffffffffffffff811115611a6657611a656125a7565b5b6040519080825280601f01601f191660200182016040528015611a985781602001600182028036833780820191505090505b509050600182016020820185865187015b80821015611b04576003820191508151603f8160121c168501518453600184019350603f81600c1c168501518453600184019350603f8160061c168501518453600184019350603f8116850151845360018401935050611aa9565b5050600386510660018114611b205760028114611b3357611b3b565b603d6001830353603d6002830353611b3b565b603d60018303535b50505080925050505b919050565b60008054905090565b6060806060611b608461208a565b604051602001611b709190613125565b60405160208183030381529060405292506009611b8e8560076120da565b60078110611b9f57611b9e613147565b5b018054611bab90612810565b80601f0160208091040260200160405190810160405280929190818152602001828054611bd790612810565b8015611c245780601f10611bf957610100808354040283529160200191611c24565b820191906000526020600020905b815481529060010190602001808311611c0757829003601f168201915b505050505091506010611c388560026120da565b60028110611c4957611c48613147565b5b018054611c5590612810565b80601f0160208091040260200160405190810160405280929190818152602001828054611c8190612810565b8015611cce5780601f10611ca357610100808354040283529160200191611cce565b820191906000526020600020905b815481529060010190602001808311611cb157829003601f168201915b50505050509050604051806060016040528084815260200183815260200182815250601260008681526020019081526020016000206000820151816000019080519060200190611d1f92919061212f565b506020820151816001019080519060200190611d3c92919061212f565b506040820151816002019080519060200190611d5992919061212f565b509050509193909250565b6000805490506000821415611da5576040517fb562e8dd00000000000000000000000000000000000000000000000000000000815260040160405180910390fd5b611db26000848385611986565b600160406001901b178202600560008573ffffffffffffffffffffffffffffffffffffffff1673ffffffffffffffffffffffffffffffffffffffff16815260200190815260200160002060008282540192505081905550611e2983611e1a600086600061198c565b611e238561211f565b176119b4565b6004600083815260200190815260200160002081905550600080838301905073ffffffffffffffffffffffffffffffffffffffff85169150828260007fddf252ad1be2c89b69c2b068fc378daa952ba7f163c4a11628f55a4df523b3ef600080a4600183015b818114611eca57808360007fddf252ad1be2c89b69c2b068fc378daa952ba7f163c4a11628f55a4df523b3ef600080a4600181019050611e8f565b506000821415611f06576040517f2e07630000000000000000000000000000000000000000000000000000000000815260040160405180910390fd5b806000819055505050611f1c60008483856119df565b505050565b60008373ffffffffffffffffffffffffffffffffffffffff1663150b7a02611f4761183c565b8786866040518563ffffffff1660e01b8152600401611f6994939291906131cb565b602060405180830381600087803b158015611f8357600080fd5b505af1925050508015611fb457506040513d601f19601f82011682018060405250810190611fb1919061322c565b60015b61202e573d8060008114611fe4576040519150601f19603f3d011682016040523d82523d6000602084013e611fe9565b606091505b50600081511415612026576040517fd1a57ed600000000000000000000000000000000000000000000000000000000815260040160405180910390fd5b805181602001fd5b63150b7a0260e01b7bffffffffffffffffffffffffffffffffffffffffffffffffffffffff1916817bffffffffffffffffffffffffffffffffffffffffffffffffffffffff191614915050949350505050565b60009392505050565b606060806040510190508060405280825b6001156120c657600183039250600a81066030018353600a81049050806120c1576120c6565b61209b565b508181036020830392508083525050919050565b600081334442866040516020016120f494939291906132c2565b6040516020818303038152906040528051906020012060001c6121179190613310565b905092915050565b60006001821460e11b9050919050565b82805461213b90612810565b90600052602060002090601f01602090048101928261215d57600085556121a4565b82601f1061217657805160ff19168380011785556121a4565b828001600101855582156121a4579182015b828111156121a3578251825591602001919060010190612188565b5b5090506121b191906121b5565b5090565b5b808211156121ce5760008160009055506001016121b6565b5090565b6000604051905090565b600080fd5b600080fd5b60007fffffffff0000000000000000000000000000000000000000000000000000000082169050919050565b61221b816121e6565b811461222657600080fd5b50565b60008135905061223881612212565b92915050565b600060208284031215612254576122536121dc565b5b600061226284828501612229565b91505092915050565b60008115159050919050565b6122808161226b565b82525050565b600060208201905061229b6000830184612277565b92915050565b6000819050919050565b6122b4816122a1565b81146122bf57600080fd5b50565b6000813590506122d1816122ab565b92915050565b6000602082840312156122ed576122ec6121dc565b5b60006122fb848285016122c2565b91505092915050565b600081519050919050565b600082825260208201905092915050565b60005b8381101561233e578082015181840152602081019050612323565b8381111561234d576000848401525b50505050565b6000601f19601f8301169050919050565b600061236f82612304565b612379818561230f565b9350612389818560208601612320565b61239281612353565b840191505092915050565b600060208201905081810360008301526123b78184612364565b905092915050565b600073ffffffffffffffffffffffffffffffffffffffff82169050919050565b60006123ea826123bf565b9050919050565b6123fa816123df565b82525050565b600060208201905061241560008301846123f1565b92915050565b612424816123df565b811461242f57600080fd5b50565b6000813590506124418161241b565b92915050565b6000806040838503121561245e5761245d6121dc565b5b600061246c85828601612432565b925050602061247d858286016122c2565b9150509250929050565b612490816122a1565b82525050565b60006020820190506124ab6000830184612487565b92915050565b6000806000606084860312156124ca576124c96121dc565b5b60006124d886828701612432565b93505060206124e986828701612432565b92505060406124fa868287016122c2565b9150509250925092565b60006020828403121561251a576125196121dc565b5b600061252884828501612432565b91505092915050565b61253a8161226b565b811461254557600080fd5b50565b60008135905061255781612531565b92915050565b60008060408385031215612574576125736121dc565b5b600061258285828601612432565b925050602061259385828601612548565b9150509250929050565b600080fd5b600080fd5b7f4e487b7100000000000000000000000000000000000000000000000000000000600052604160045260246000fd5b6125df82612353565b810181811067ffffffffffffffff821117156125fe576125fd6125a7565b5b80604052505050565b60006126116121d2565b905061261d82826125d6565b919050565b600067ffffffffffffffff82111561263d5761263c6125a7565b5b61264682612353565b9050602081019050919050565b82818337600083830152505050565b600061267561267084612622565b612607565b905082815260208101848484011115612691576126906125a2565b5b61269c848285612653565b509392505050565b600082601f8301126126b9576126b861259d565b5b81356126c9848260208601612662565b91505092915050565b600080600080608085870312156126ec576126eb6121dc565b5b60006126fa87828801612432565b945050602061270b87828801612432565b935050604061271c878288016122c2565b925050606085013567ffffffffffffffff81111561273d5761273c6121e1565b5b612749878288016126a4565b91505092959194509250565b6000606082019050818103600083015261276f8186612364565b905081810360208301526127838185612364565b905081810360408301526127978184612364565b9050949350505050565b600080604083850312156127b8576127b76121dc565b5b60006127c685828601612432565b92505060206127d785828601612432565b9150509250929050565b7f4e487b7100000000000000000000000000000000000000000000000000000000600052602260045260246000fd5b6000600282049050600182168061282857607f821691505b6020821081141561283c5761283b6127e1565b5b50919050565b600081905092915050565b7f3c7376672077696474683d2235303022206865696768743d223530302220786d60008201527f6c6e733d22687474703a2f2f7777772e77332e6f72672f323030302f7376672260208201527f3e00000000000000000000000000000000000000000000000000000000000000604082015250565b60006128cf604183612842565b91506128da8261284d565b604182019050919050565b7f3c7265637420206865696768743d22323835222077696474683d22343037222060008201527f793d2237302220783d22323522207374726f6b653d222342324135413522206660208201527f696c6c3d2223433937413836222f3e0000000000000000000000000000000000604082015250565b6000612967604f83612842565b9150612972826128e5565b604f82019050919050565b7f3c7465787420746578742d616e63686f723d2273746172742220666f6e742d7360008201527f697a653d2232342220793d223130332220783d2235372e32333235392220206660208201527f696c6c3d2223303030303030223e000000000000000000000000000000000000604082015250565b60006129ff604e83612842565b9150612a0a8261297d565b604e82019050919050565b6000612a2082612304565b612a2a8185612842565b9350612a3a818560208601612320565b80840191505092915050565b7f3c2f746578743e3c7465787420202020746578742d616e63686f723d226d696460008201527f646c652220666f6e742d73697a653d2232342220793d223137332220783d223160208201527f35372e3037363933222066696c6c3d2223303030303030223e00000000000000604082015250565b6000612ac8605983612842565b9150612ad382612a46565b605982019050919050565b7f3c2f746578743e3c746578742020746578742d616e63686f723d22737461727460008201527f2220666f6e742d73697a653d2232342220793d223333382220783d223336322260208201527f207374726f6b652d77696474683d2230222066696c6c3d22233030303030302260408201527f3e00000000000000000000000000000000000000000000000000000000000000606082015250565b6000612b86606183612842565b9150612b9182612ade565b606182019050919050565b7f3c2f746578743e00000000000000000000000000000000000000000000000000600082015250565b6000612bd2600783612842565b9150612bdd82612b9c565b600782019050919050565b7f3c2f7376673e0000000000000000000000000000000000000000000000000000600082015250565b6000612c1e600683612842565b9150612c2982612be8565b600682019050919050565b6000612c3f826128c2565b9150612c4a8261295a565b9150612c55826129f2565b9150612c618286612a15565b9150612c6c82612abb565b9150612c788285612a15565b9150612c8382612b79565b9150612c8f8284612a15565b9150612c9a82612bc5565b9150612ca582612c11565b9150819050949350505050565b7f4e487b7100000000000000000000000000000000000000000000000000000000600052601160045260246000fd5b6000612cec826122a1565b9150612cf7836122a1565b9250827fffffffffffffffffffffffffffffffffffffffffffffffffffffffffffffffff03821115612d2c57612d2b612cb2565b5b828201905092915050565b7f7b226e616d65223a202200000000000000000000000000000000000000000000600082015250565b6000612d6d600a83612842565b9150612d7882612d37565b600a82019050919050565b7f222c20226465736372697074696f6e223a202200000000000000000000000000600082015250565b6000612db9601383612842565b9150612dc482612d83565b601382019050919050565b7f412072616e646f6d2067656e657261746564206f6e20636861696e204e66742060008201527f6f6620646966666572656e742070726f6772616d6d696e67206c616e6775616760208201527f6520616e6420646576206c6576656c0000000000000000000000000000000000604082015250565b6000612e51604f83612842565b9150612e5c82612dcf565b604f82019050919050565b7f222c2022696d616765223a202200000000000000000000000000000000000000600082015250565b6000612e9d600d83612842565b9150612ea882612e67565b600d82019050919050565b7f646174613a696d6167652f7376672b786d6c3b6261736536342c200000000000600082015250565b6000612ee9601b83612842565b9150612ef482612eb3565b601b82019050919050565b7f227d000000000000000000000000000000000000000000000000000000000000600082015250565b6000612f35600283612842565b9150612f4082612eff565b600282019050919050565b6000612f5682612d60565b9150612f628285612a15565b9150612f6d82612dac565b9150612f7882612e44565b9150612f8382612e90565b9150612f8e82612edc565b9150612f9a8284612a15565b9150612fa582612f28565b91508190509392505050565b7f6261736536343a6170706c69636174696f6e2f6a736f6e3b6261736536342c00600082015250565b6000612fe7601f83612842565b9150612ff282612fb1565b601f82019050919050565b600061300882612fda565b91506130148284612a15565b915081905092915050565b7f4e487b7100000000000000000000000000000000000000000000000000000000600052601260045260246000fd5b6000613059826122a1565b9150613064836122a1565b9250826130745761307361301f565b5b828204905092915050565b600061308a826122a1565b9150613095836122a1565b9250817fffffffffffffffffffffffffffffffffffffffffffffffffffffffffffffffff04831182151516156130ce576130cd612cb2565b5b828202905092915050565b7f2300000000000000000000000000000000000000000000000000000000000000600082015250565b600061310f600183612842565b915061311a826130d9565b600182019050919050565b600061313082613102565b915061313c8284612a15565b915081905092915050565b7f4e487b7100000000000000000000000000000000000000000000000000000000600052603260045260246000fd5b600081519050919050565b600082825260208201905092915050565b600061319d82613176565b6131a78185613181565b93506131b7818560208601612320565b6131c081612353565b840191505092915050565b60006080820190506131e060008301876123f1565b6131ed60208301866123f1565b6131fa6040830185612487565b818103606083015261320c8184613192565b905095945050505050565b60008151905061322681612212565b92915050565b600060208284031215613242576132416121dc565b5b600061325084828501613217565b91505092915050565b60008160601b9050919050565b600061327182613259565b9050919050565b600061328382613266565b9050919050565b61329b613296826123df565b613278565b82525050565b6000819050919050565b6132bc6132b7826122a1565b6132a1565b82525050565b60006132ce828761328a565b6014820191506132de82866132ab565b6020820191506132ee82856132ab565b6020820191506132fe82846132ab565b60208201915081905095945050505050565b600061331b826122a1565b9150613326836122a1565b9250826133365761333561301f565b5b82820690509291505056fe4142434445464748494a4b4c4d4e4f505152535455565758595a6162636465666768696a6b6c6d6e6f707172737475767778797a303132333435363738392b2fa26469706673582212202a7abdee17f7ba83b785e9622605bf15503324b919e53cc4cc314a62fdc124f264736f6c63430008090033",
  "devdoc": {
    "kind": "dev",
    "methods": {
      "approve(address,uint256)": {
        "details": "Gives permission to `to` to transfer `tokenId` token to another account. The approval is cleared when the token is transferred. Only a single account can be approved at a time, so approving the zero address clears previous approvals. Requirements: - The caller must own the token or be an approved operator. - `tokenId` must exist. Emits an {Approval} event."
      },
      "balanceOf(address)": {
        "details": "Returns the number of tokens in `owner`'s account."
      },
      "getApproved(uint256)": {
        "details": "Returns the account approved for `tokenId` token. Requirements: - `tokenId` must exist."
      },
      "isApprovedForAll(address,address)": {
        "details": "Returns if the `operator` is allowed to manage all of the assets of `owner`. See {setApprovalForAll}."
      },
      "name()": {
        "details": "Returns the token collection name."
      },
      "ownerOf(uint256)": {
        "details": "Returns the owner of the `tokenId` token. Requirements: - `tokenId` must exist."
      },
      "safeTransferFrom(address,address,uint256)": {
        "details": "Equivalent to `safeTransferFrom(from, to, tokenId, '')`."
      },
      "safeTransferFrom(address,address,uint256,bytes)": {
        "details": "Safely transfers `tokenId` token from `from` to `to`. Requirements: - `from` cannot be the zero address. - `to` cannot be the zero address. - `tokenId` token must exist and be owned by `from`. - If the caller is not `from`, it must be approved to move this token by either {approve} or {setApprovalForAll}. - If `to` refers to a smart contract, it must implement {IERC721Receiver-onERC721Received}, which is called upon a safe transfer. Emits a {Transfer} event."
      },
      "setApprovalForAll(address,bool)": {
        "details": "Approve or remove `operator` as an operator for the caller. Operators can call {transferFrom} or {safeTransferFrom} for any token owned by the caller. Requirements: - The `operator` cannot be the caller. Emits an {ApprovalForAll} event."
      },
      "supportsInterface(bytes4)": {
        "details": "Returns true if this contract implements the interface defined by `interfaceId`. See the corresponding [EIP section](https://eips.ethereum.org/EIPS/eip-165#how-interfaces-are-identified) to learn more about how these ids are created. This function call must use less than 30000 gas."
      },
      "symbol()": {
        "details": "Returns the token collection symbol."
      },
      "tokenURI(uint256)": {
        "details": "Returns the Uniform Resource Identifier (URI) for `tokenId` token."
      },
      "totalSupply()": {
        "details": "Returns the total number of tokens in existence. Burned tokens will reduce the count. To get the total number of tokens minted, please see {_totalMinted}."
      },
      "transferFrom(address,address,uint256)": {
        "details": "Transfers `tokenId` from `from` to `to`. Requirements: - `from` cannot be the zero address. - `to` cannot be the zero address. - `tokenId` token must be owned by `from`. - If the caller is not `from`, it must be approved to move this token by either {approve} or {setApprovalForAll}. Emits a {Transfer} event."
      }
    },
    "version": 1
  },
  "userdoc": {
    "errors": {
      "ApprovalCallerNotOwnerNorApproved()": [
        {
          "notice": "The caller must own the token or be an approved operator."
        }
      ],
      "ApprovalQueryForNonexistentToken()": [
        {
          "notice": "The token does not exist."
        }
      ],
      "ApproveToCaller()": [
        {
          "notice": "The caller cannot approve to their own address."
        }
      ],
      "BalanceQueryForZeroAddress()": [
        {
          "notice": "Cannot query the balance for the zero address."
        }
      ],
      "MintERC2309QuantityExceedsLimit()": [
        {
          "notice": "The `quantity` minted with ERC2309 exceeds the safety limit."
        }
      ],
      "MintToZeroAddress()": [
        {
          "notice": "Cannot mint to the zero address."
        }
      ],
      "MintZeroQuantity()": [
        {
          "notice": "The quantity of tokens minted must be more than zero."
        }
      ],
      "OwnerQueryForNonexistentToken()": [
        {
          "notice": "The token does not exist."
        }
      ],
      "OwnershipNotInitializedForExtraData()": [
        {
          "notice": "The `extraData` cannot be set on an unintialized ownership slot."
        }
      ],
      "TransferCallerNotOwnerNorApproved()": [
        {
          "notice": "The caller must own the token or be an approved operator."
        }
      ],
      "TransferFromIncorrectOwner()": [
        {
          "notice": "The token must be owned by `from`."
        }
      ],
      "TransferToNonERC721ReceiverImplementer()": [
        {
          "notice": "Cannot safely transfer to a contract that does not implement the ERC721Receiver interface."
        }
      ],
      "TransferToZeroAddress()": [
        {
          "notice": "Cannot transfer to the zero address."
        }
      ],
      "URIQueryForNonexistentToken()": [
        {
          "notice": "The token does not exist."
        }
      ]
    },
    "kind": "user",
    "methods": {},
    "version": 1
  },
  "storageLayout": {
    "storage": [
      {
        "astId": 455,
        "contract": "contracts/MyNft.sol:MyNft",
        "label": "_currentIndex",
        "offset": 0,
        "slot": "0",
        "type": "t_uint256"
      },
      {
        "astId": 457,
        "contract": "contracts/MyNft.sol:MyNft",
        "label": "_burnCounter",
        "offset": 0,
        "slot": "1",
        "type": "t_uint256"
      },
      {
        "astId": 459,
        "contract": "contracts/MyNft.sol:MyNft",
        "label": "_name",
        "offset": 0,
        "slot": "2",
        "type": "t_string_storage"
      },
      {
        "astId": 461,
        "contract": "contracts/MyNft.sol:MyNft",
        "label": "_symbol",
        "offset": 0,
        "slot": "3",
        "type": "t_string_storage"
      },
      {
        "astId": 465,
        "contract": "contracts/MyNft.sol:MyNft",
        "label": "_packedOwnerships",
        "offset": 0,
        "slot": "4",
        "type": "t_mapping(t_uint256,t_uint256)"
      },
      {
        "astId": 469,
        "contract": "contracts/MyNft.sol:MyNft",
        "label": "_packedAddressData",
        "offset": 0,
        "slot": "5",
        "type": "t_mapping(t_address,t_uint256)"
      },
      {
        "astId": 474,
        "contract": "contracts/MyNft.sol:MyNft",
        "label": "_tokenApprovals",
        "offset": 0,
        "slot": "6",
        "type": "t_mapping(t_uint256,t_struct(TokenApprovalRef)387_storage)"
      },
      {
        "astId": 480,
        "contract": "contracts/MyNft.sol:MyNft",
        "label": "_operatorApprovals",
        "offset": 0,
        "slot": "7",
        "type": "t_mapping(t_address,t_mapping(t_address,t_bool))"
      },
      {
        "astId": 78,
        "contract": "contracts/MyNft.sol:MyNft",
        "label": "_amountMinted",
        "offset": 0,
        "slot": "8",
        "type": "t_mapping(t_address,t_uint256)"
      },
      {
        "astId": 90,
        "contract": "contracts/MyNft.sol:MyNft",
        "label": "languages",
        "offset": 0,
        "slot": "9",
        "type": "t_array(t_string_storage)7_storage"
      },
      {
        "astId": 97,
        "contract": "contracts/MyNft.sol:MyNft",
        "label": "level",
        "offset": 0,
        "slot": "16",
        "type": "t_array(t_string_storage)2_storage"
      },
      {
        "astId": 109,
        "contract": "contracts/MyNft.sol:MyNft",
        "label": "_info",
        "offset": 0,
        "slot": "18",
        "type": "t_mapping(t_uint256,t_struct(Info)104_storage)"
      }
    ],
    "types": {
      "t_address": {
        "encoding": "inplace",
        "label": "address",
        "numberOfBytes": "20"
      },
      "t_array(t_string_storage)2_storage": {
        "base": "t_string_storage",
        "encoding": "inplace",
        "label": "string[2]",
        "numberOfBytes": "64"
      },
      "t_array(t_string_storage)7_storage": {
        "base": "t_string_storage",
        "encoding": "inplace",
        "label": "string[7]",
        "numberOfBytes": "224"
      },
      "t_bool": {
        "encoding": "inplace",
        "label": "bool",
        "numberOfBytes": "1"
      },
      "t_mapping(t_address,t_bool)": {
        "encoding": "mapping",
        "key": "t_address",
        "label": "mapping(address => bool)",
        "numberOfBytes": "32",
        "value": "t_bool"
      },
      "t_mapping(t_address,t_mapping(t_address,t_bool))": {
        "encoding": "mapping",
        "key": "t_address",
        "label": "mapping(address => mapping(address => bool))",
        "numberOfBytes": "32",
        "value": "t_mapping(t_address,t_bool)"
      },
      "t_mapping(t_address,t_uint256)": {
        "encoding": "mapping",
        "key": "t_address",
        "label": "mapping(address => uint256)",
        "numberOfBytes": "32",
        "value": "t_uint256"
      },
      "t_mapping(t_uint256,t_struct(Info)104_storage)": {
        "encoding": "mapping",
        "key": "t_uint256",
        "label": "mapping(uint256 => struct MyNft.Info)",
        "numberOfBytes": "32",
        "value": "t_struct(Info)104_storage"
      },
      "t_mapping(t_uint256,t_struct(TokenApprovalRef)387_storage)": {
        "encoding": "mapping",
        "key": "t_uint256",
        "label": "mapping(uint256 => struct ERC721A.TokenApprovalRef)",
        "numberOfBytes": "32",
        "value": "t_struct(TokenApprovalRef)387_storage"
      },
      "t_mapping(t_uint256,t_uint256)": {
        "encoding": "mapping",
        "key": "t_uint256",
        "label": "mapping(uint256 => uint256)",
        "numberOfBytes": "32",
        "value": "t_uint256"
      },
      "t_string_storage": {
        "encoding": "bytes",
        "label": "string",
        "numberOfBytes": "32"
      },
      "t_struct(Info)104_storage": {
        "encoding": "inplace",
        "label": "struct MyNft.Info",
        "members": [
          {
            "astId": 99,
            "contract": "contracts/MyNft.sol:MyNft",
            "label": "name",
            "offset": 0,
            "slot": "0",
            "type": "t_string_storage"
          },
          {
            "astId": 101,
            "contract": "contracts/MyNft.sol:MyNft",
            "label": "lang",
            "offset": 0,
            "slot": "1",
            "type": "t_string_storage"
          },
          {
            "astId": 103,
            "contract": "contracts/MyNft.sol:MyNft",
            "label": "lev",
            "offset": 0,
            "slot": "2",
            "type": "t_string_storage"
          }
        ],
        "numberOfBytes": "96"
      },
      "t_struct(TokenApprovalRef)387_storage": {
        "encoding": "inplace",
        "label": "struct ERC721A.TokenApprovalRef",
        "members": [
          {
            "astId": 386,
            "contract": "contracts/MyNft.sol:MyNft",
            "label": "value",
            "offset": 0,
            "slot": "0",
            "type": "t_address"
          }
        ],
        "numberOfBytes": "32"
      },
      "t_uint256": {
        "encoding": "inplace",
        "label": "uint256",
        "numberOfBytes": "32"
      }
    }
  }
}